S0120000746573745F74696D65722E73726563D2
S11300000C942A000C9447000C9447000C9447006D
S11300100C9447000C9447000C9447000C94470040
S11300200C9447000C9447000C9447000C94C901AD
S11300300C9447000C9447000C9447000C94470020
S11300400C9447000C9447000C9447000C94470010
S11300500C94470011241FBECFE5D8E0DEBFCDBF0E
S113006010E0A0E6B0E0E0EFF3E002C005900D92EE
S1130070A236B107D9F720E0A2E6B0E001C01D9294
S1130080A636B207E1F70E9481010C94F6010C94A4
S113009000008130C9F028F0823039F18330B1F1A9
S11300A046C0673008F045C0423008F044C08AB307
S11300B050E09A0102C0220F331F6A95E2F7B9019A
S11300C0682B6ABB81E008956730B8F54230B8F513
S11300D087B350E09A0102C0220F331F6A95E2F7FA
S11300E0B901682B67BB81E00895673050F5423051
S11300F050F58AB350E09A0102C0220F331F6A956B
S1130100E2F7B901682B6ABB81E008956730E8F42F
S11301104230E8F48AB350E09A0102C0220F331F40
S11301206A95E2F7B901682B6ABB81E008958FEF05
S113013008958EEF08958EEF08958EEF08958EEF53
S113014008958EEF08958EEF08958EEF08958EEF43
S11301500895813041F138F0823009F444C083308D
S113016009F461C07FC0673008F07EC040FD0EC056
S11301702BB381E090E0AC0102C0440F551F6A9597
S1130180E2F7BA01609562236BBB08952BB381E05B
S113019090E0AC0102C0440F551F6A95E2F7BA0122
S11301A0622B6BBB0895673008F060C040FD0EC041
S11301B028B381E090E0AC0102C0440F551F6A955A
S11301C0E2F7BA016095622368BB089528B381E021
S11301D090E0AC0102C0440F551F6A95E2F7BA01E2
S11301E0622B68BB0895673008F042C040FD0EC022
S11301F025B381E090E0AC0102C0440F551F6A951D
S1130200E2F7BA016095622365BB089525B381E0E6
S113021090E0AC0102C0440F551F6A95E2F7BA01A1
S1130220622B65BB0895673028F540FD0EC022B3EC
S113023081E090E0AC0102C0440F551F6A95E2F7DB
S1130240BA016095622362BB089522B381E090E015
S1130250AC0102C0440F551F6A95E2F7BA01622B44
S113026062BB08958FEF08958EEF08958EEF089581
S11302708EEF08958EEF089580916100813001F52D
S1130280809163008F5F809363008230A1F441E02A
S113029080916000811140E04093600060E081E063
S11302A00E94A90087EE90E00E94C50110926300AD
S11302B010926100089584E290E00E94C5010895BF
S11302C0809162008F5F809362008230A9F441E0E4
S11302D080916000811140E04093600060E081E023
S11302E00E94A90080E091E00E94C5011092620082
S11302F081E080936100089580E091E00E94C5014F
S1130300089541E060E081E00E94490041E060E03E
S113031081E00E94A9000E949E0180E00E94AB013E
S11303200E94A70180E091E00E94C5018CE391E066
S11303300E94A20180E00E94BD01FFCF8FB78068B8
S11303408FBF08959093650080936400089583B7E8
S113035083BF81E00895823070F449B721E030E032
S1130360B90102C0660F771F8A95E2F7CB01842B8F
S113037089BF81E008958FEF089583B7887F83BF95
S113038083B7856083BF81E00895819582BF81E052
S113039008951F920F920FB60F9211242F933F933B
S11303A04F935F936F937F938F939F93AF93BF9379
S11303B0EF93FF938091640090916500892B29F05D
S11303C0E0916400F09165000995FF91EF91BF9170
S11303D0AF919F918F917F916F915F914F913F91D9
S11303E02F910F900FBE0F901F901895F894FFCF88
S10503F0010105
S9030000FC
